:020000040000FA
:2000000002032402180322222222FF02180BE4FF8128FF02181375C80122FF02181BFFFFA4
:20002000FFFFFF021823FFFFFFFFFF02182BFFFFFFFFFF021833FFFFFFFFFF02183BFFFFB0
:20004000FFFFFF021843FFFFFFFFFF02184BFFFFFFFFFF021853FFFFFFFFFF02185BFFFF10
:20006000FFFFFF021863FFFFFFFFFF02186BFFFFFFFFFF021873BB010689828A83E02250D2
:2000800002E722BBFE02E32289828A83E49322BB010CE58229F582E5833AF583E0225006A3
:2000A000E92582F8E622BBFE06E92582F8E222E58229F582E5833AF583E49322BB01068960
:2000C000828A83F0225002F722BBFE01F322F8BB010DE58229F582E5833AF583E8F0225019
:2000E00006E92582C8F622BBFE05E92582C8F222C5F0F8A3E028F0C5F0F8E58215827002FB
:200100001583E038F022A3F8E0C5F025F0F0E582158270021583E0C838F0E822BB010A89B7
:20012000828A83E0F5F0A3E022500687F009E71922BBFE07E3F5F009E3192289828A83E423
:2001400093F5F074019322BB010A89828A83F0E5F0A3F0225006F709A7F01922BBFE06F3CB
:20016000E5F009F31922EF2BFFEE3AFEED39FDEC38FC22C3EF9BFFEE9AFEED99FDEC98FCFA
:200180002275F008758200EF2FFFEE33FECD33CDCC33CCC58233C5829BED9AEC99E582989E
:2001A000400CF582EE9BFEED9AFDEC99FC0FD5F0D6E4CEFBE4CDFAE4CCF9A88222B800C180
:2001C000B90059BA002DEC8BF084CFCECDFCE5F0CBF97818EF2FFFEE33FEED33FDEC33FC38
:2001E000EB33FB10D703994004EB99FB0FD8E5E4F9FA227818EF2FFFEE33FEED33FDEC33D3
:20020000FCC933C910D7059BE99A4007EC9BFCE99AF90FD8E0E4C9FAE4CCFB2275F010EF2E
:200220002FFFEE33FEED33FDCC33CCC833C810D7079BEC9AE899400AED9BFDEC9AFCE89964
:20024000F80FD5F0DAE4CDFBE4CCFAE4C8F922EF5BFFEE5AFEED59FDEC58FC22EB9FF5F038
:20026000EA9E42F0E99D42F0E89C45F022E8600FECC313FCED13FDEE13FEEF13FFD8F12234
:20028000E0FCA3E0FDA3E0FEA3E0FF22E0F8A3E0F9A3E0FAA3E0FB22ECF0A3EDF0A3EEF08F
:2002A000A3EFF022A8828583F0D083D0821202BB1202BB1202BB1202BBE473E493A3C583DE
:2002C000C5F0C583C8C582C8F0A3C583C5F0C583C8C582C822E0FBA3E0FAA3E0F922F8E0AB
:2002E000FBA3A3E0F925F0F0E582158270021583E0FA38F022EBF0A3EAF0A3E9F022D0836A
:20030000D082F8E4937012740193700DA3A393F8740193F5828883E4737402936860EFA300
:20032000A3A380DF75814B0207E2AEFFEE54CFFEEFC454F024804EF5FF229009105198900F
:200340000910518071ED900914E06F603411089134EF6004110980F7B1089000C3E0FF9187
:20036000BF6009900910518078107187900910718390091091E3900914E0FF718A9124D392
:2003800022C32251807808516DE4E5C820E2FB8FEB229000CD51989000D151F51108913452
:2003A000EF6004110980F7B1089000C3E0FF91BF60099000CD5180781071879000CD7183B6
:2003C0009000CD5180E4801B9000D4D1AD60189000D151D5EA494B60089000D1120F248083
:2003E00001E4FF718A80E1B1B1E4FF803B90090B519811089134EF6004110980F791B760C6
:200400000990090B51807810718790090B718390090B5180E491CC90090F912290090FE0AD
:20042000FF22EFF0B1B1E4FFEFB4010443FE202253FEDF223002147F01912891C890092564
:200440009122900925E020E002C202A202E433FF229000D651989000DA51F511089134EFDD
:200460006004110980F791B760099000D65180781071879000D671839000D691E39000DD7E
:20048000D1AD601291CE9000DA51D5EF11BC9000DB120F0B80E7B1B1E4FF808C1108913494
:2004A000EF6004110980F7B1087F01718A7F03718AB1B1E4FF81287F019128B1167F0371C6
:2004C0008A9000C5E0640222B1167F05718A7FFF718AE5C820E2FBAFEB22900000E0FEA39F
:2004E000E0FF225180E4618A11089134EF6004110980F722900923E014F0E022FFFFFFFFD9
:20050000FFFFFFFFFFFFFFFF7F019128D202B1167F06718AB1B19000C4E051FE0538040564
:200520004014054515054A17055A30055F34056436056937000005525346EF854680802F5E
:200540005347EF80085347DF800353477F854790801D5348DF8548A080155349FE800D5386
:2005600049EF80085349BF800353497F8549B07F0CDFFE227F0191289009247401F09009C6
:2005800024E0600E91C8900924EFF05401F0B1B180ECB1167F9F91CC9000C2EFF091CE907F
:2005A00000C6EFF091CE9000C7EFF0B1B1E4FF81281212EEEF70FA9000C6E0F4600A90097B
:2005C000237406F091F470FC9000C4E051FE05EA0405F21405F71505FC17060C3006113466
:2005E000061636061B3700000604434610854680802F4347108008434720800343478085D6
:200600004790801D4348208548A08015434901800D43491080084349408003434980854952
:20062000B0900923740CF091F470FC22900000EEF0A3EFF0A351809000085198900006E070
:20064000FFA3E090000CCF805C90000C120F04605AC3EF9440EE94004006A37440F080053C
:2006600090000EEFF0F190E0FFF189EFF09000085180915190000EE0FFC390000DE09FF0AD
:2006800090000CE09400F0900008518C90000EE4FCFDFE3166900008519891DAF190120B4B
:2006A000B2900000EEF0A3EFF0809E81DA74FFF5F0310645F0229000FD51F5F19AEF2408C0
:2006C000FFE43EF1C07A00797FF1877402F0915190007F120F12900092F1A87B017A0079AA
:2006E00084F189740EF09151900092F1B8F16F900086F17A7F0F7E1DF156F174C006C0079A
:20070000F1ACE43EF167900088F17AD007D006F156F174C006C007F1ACEE3480F167900032
:200720008AF17AD007D006F156F174C006C007F19AF16F900085E02400FE900084E034E8CC
:20074000900006F0A3CEF0D007D006F156311C45F0C37001D322D12C9000FD51D5EE8FF0F6
:2007600031479000FD41D5FEED3401FDE43CFC9000024198311CFFAEF022E0FFA3E09000BC
:2007800006CFF0A3EFF0227B019000DDE4F0A3227B017A00790F90000E22900079E0FEA3A6
:2007A000E0FFE4FCFD900096518C21669000925180E42FFF229000AF5180E42FFFEE348008
:2007C000FEE43DFDE43CFC229009021212A8C00790090251D5900905E0FFF189EFF0D00723
:2007E000815175FF03759E0275FF02E5E654036003020BA9753CDE753DAD753EBE753FEFE8
:20080000C2AF75FF0275E404F5E47546FF7547FF7548FF7549FF7542FF7543FF7544FF7533
:2008200045FF75FF0253E6BF91B7B195F1DEEF6401600261A090180893FE740193FF90001A
:20084000ADEEF0A3EFF0F5828E83E493F540740193F541740293F54A740393F54B7404937C
:20086000F530740593F531740693F532740793F533C201EF4E70022167EFF4FFEEF44F703A
:20088000022167E540454AFEE541454BFFE5304EFEE5314FFFE5324EFEE5334F4E700221F7
:2008A00067E54BF4FFE54AF4FEE541F4FDE540F44EFEED4FFFE531F4FDE530F44EFEEF4D3E
:2008C000FFE533F4FDE532F44EFEEF4D4E700221677F0312032AE53324FFFFE532916764C7
:2008E0000370247F0212032AE53124FFFFE5309167B402137F0112032AE54B24FFFFE54A53
:200900009167B40102D20120015D7F0112032A917B9000E4E54AF0A3E54BF07F0F7E1D91FC
:20092000257F0291709000E4E530F0E53191237F0391709000E4E532F0E53391237F011271
:20094000032A90091EE0FEA3E0FF7BFF7A187900E425419000E5F0E54034E89000E49124B5
:200960004EC37001D39201300109F14AEF6401600261A09000ADE0FEA3E0F5828E83740CBD
:2009800093F53A740D93F53B90009612028071AC900079F1129000AF1207A8EF2408FFE470
:2009A0003E1207C07B007A0079381207897402F0120451C200D3900078E09539900077E0D9
:2009C0009538400241A89000AF12028CC000C001C002C003AE38AF39E4FCFDC006C0079072
:2009E0000077E0FEA3E0FBAA06E4F9F8D007D006120173D003D002D001D00012016671AC90
:200A000090007B120280EF24F2FFEE34FF91829000AFF143400241A89000AF1202807A0014
:200A2000799F120787740EF01204519000ABE0F536A3E0F5379000A1E0F54AA3E0F54BA37A
:200A4000E0F530A3E0F531A3E0F532A3E0F533900092120280EF24FFFFEE347F1207C071E1
:200A6000ACAE4AAF4BE4FCFD9000AF1207A81203EDEF640170321207B571ACAE30AF31E476
:200A8000FCFD9000AF1207A81203EDBF021A1207B571ACAE32AF33E4FCFD9000AF1207A8F6
:200AA0001203EDBF0302D200200002619C30010EE53B65377004E53A65367002619C7B016B
:200AC0007A09791E1206B64002619C90009B1202A40000180012079A61767440D3953450CA
:200AE00002618B90007B1207AFEE34F891829000AF12028CD312025C4002618B90009B127B
:200B000002807B007AF879017800C312025C407B9000AF1202800B7A0179009000DD7408CB
:200B2000F0A3E4F0120451E4F535FB9132AF34918CE535C3940850209130E5357F00FEEFEB
:200B40002400F974013EFA7B0190090AE535F0AD34121070053580D990009B1207AFEE3487
:200B6000081207C090009B1202989000AF1207AFEE34081207C071ACE4FB7A08F9F89000B4
:200B80009B1202801201BD8F3441DA7440D39534400A9130AF34918C053480EFE4FFF17B26
:200BA000E4F53CF53DF53EF53F0218009000AF020298E0FD9000E4E4F0A3EDF09000DFEE90
:200BC000F0A3EFF0A31202F59000E41206AD604A9000E1F1249000E6F07D80ED60EA911A49
:200BE000EE7C0030E7027C019000E6E05D7B0060027B01EB6CFCEF25E0FFEE339000DFF023
:200C0000A3EFF0AF04EF600C9000DFE06410F0A3E06421F0EDC313FD80C19000DFE0FEA3A8
:200C2000E0FF22A3F071BC90091EEEF0A3EFF0227B007A00793C91B075FF03120076F5D308
:200C400075FF03900001915E900002915E900003915E75D40175FF03E5D55402FF22120096
:200C60008FF5D375FF0322347F8F82F583E4932212032A90091EE0FEA3E0FF7BFF7A80796C
:200C80000022FEED34FFFDEC34FFFC2275FF03EF543F4480F5D1E5D520E20AE5D520E005D2
:200CA000E5D530E1F1E5D55403FF75FF0375D50575FF0375D4022290091A7410F090091AE4
:200CC000E0FFD3947F503CB12A90091BEFF090091AE0B410067E1D7F0F800890091CE0FEB4
:200CE000A3E0FF7B017A09791B9000E4E4F0A304F071BC90091CEEF0A3EFF090091AE00427
:200D0000F080BA90091CE07002A3E07F0070027F01901215EFF024FF227F0F7E1D71B490F5
:200D200000EB1202D59000EE61B275FF03E4F597F11BE59720E1FB75FF03AF992290091554
:200D4000EFF0A3EDF0A31202F5900916E06045901215E06012900915E02410FFB12A900916
:200D6000171202D5EF8017900915E0640190091770071202D5748080051202D574FF120003
:200D8000BC900918F10B900916E014F0900915E004F080B5227B017A0079C47F03D1ED7A91
:200DA0000079CC7F08D1ED7A0079CA7D027F09B13D7B017A0079C87D027F0BB13D9000C871
:200DC000F1046006BEFF1BBFFF189000CCE024FD6003047004D1FA80099000C8E4F0A3743B
:200DE00040F09000CCE024FD60030470089000C57403F080069000C57402F09000C4E01244
:200E000002FE0E1E040E29140E31150E39170E4F300E57340E5F360E673700000E4475FF6A
:200E2000015342EF8542FD804775FF015343EF800E75FF015343DF800675FF0153437F859B
:200E400043C9802C75FF015344DF8544CA802175FF015345FE801675FF015345EF800E751B
:200E6000FF015345BF800675FF0153457F8545CB1205B17F11D1F41205749000C6E02480F2
:200E800070147F10D1F49000C3740AF09000C57403F0D1FA80069000C37402F09000C7E0BC
:200EA000F470479000CAE0FEA3E0FF640A4E70069000C7740AF0EF64104E70069000C774E4
:200EC00010F0EF64804E70069000C77411F0E4B5070AEEB401069000C77412F0E4B5070AE5
:200EE000EEB402069000C77413F002049C7D01B13D7B0122EF4420F5FE229000C87401F0A9
:200F0000A3E4F022E0FEA3E0FF4E22E475F0010200F0E0FEA3E0FFE4FCFD2275FF038F982F
:200F200075FF0322E475F0011202DE02007691B075FF03E5D5F45402FF22E4FFFE7D02FC2B
:200F400090007B12028CC302025CE4900922F090009AE06020F13A70087FFF7E77FDFC801B
:200F60000CF1BB50107FFF7EFF7D017C001203ED900922EFF0900922E0FF22900920EFF074
:200F8000E4A3F090009AE06021F13A7008F1B07E777D00800AF1BB5011F1B07EFF7D017CEA
:200FA0000012033AE433900921F0900921E0FF22900920E0900914F07FFF2290007B120271
:200FC00080E4FBFA7904F8D302025C75FF03759701F11BE59720E1FB75FF03AF9922900097
:200FE0009A7401F0FB7A0079811210B8900083E0FB24EE60341460312402706990007B1254
:2010000002A4000200009000961202A4000078009000921202A4000060009000777418F015
:20102000A3E4F0A3F0A3F08041EBB41208E4FFFE7D04FC8006E4FFFE7D08FC90007B120234
:20104000989000961202A4000200009000921202A400020000E4900077F0A3F0A37418F0AF
:20106000A3E4F08005E490009AF090009AE0FF2275FF03ACD5EC20E13C75FF03ED543FF53E
:20108000D175FF03E9F5D375FF03EA540FFF90090AE0C4547044804FF5D2E5D520E205E509
:2010A000D530E0F6E5D55401FC75FF0343D40275FF0375D505AF04229000C2E01200BC908F
:2010C00000C6E09000011200CE9000C7E09000020200CEE4FCFD0203EDAB05E4FCFD90096B
:2010E00014EBF002033A9000B71202989000BB1202F531FE9000BE5104F09000B7120280DE
:201100005125500221AE9000C9E024FFFF9000C8E034FFFEE4FCFD9000B712028C12024F4D
:201120009000C0EEF0A3EFF04E603A31B0C39000C9E09FFF9000C8E09EFE9000C0F0A3EFF6
:20114000F09000BEE0FCA3E0FDD39FEC9E5006A3ECF0A3EDF031B9E94A600431B080427E02
:20116000007F00803C9000BE120F04603F9000C8E0FCA3E0FDD3EF9DEE9C400A9000C0ECFF
:20118000F0A3EDF0800D9000BEE0FFA3E0A3CFF0A3EFF031B9E94A600431B080047E007FDB
:2011A000009000BCEE8FF01200F080B9D322C3229000C0E0FEA3E0FF229000BB1202D590CB
:2011C00000C0E0FFA3E09000D4CFF0A3EFF09000B71202801203929000C0E0FEA3E0FFC353
:2011E0009000BFE09FF09000BEE09EF09000B712028CE4FCFD1201669000B71202989000B5
:20120000BB0202D5E0FFA3E0900056CFF0A3EF229000F851A8C0079000F81202D59000FB3B
:201220005104F0D00790004F1202989000531202F5E4900076F0D3900057E0941E9000560F
:20124000E094004001227B017A007958900056E0FFA3E09000DDCFF0A3EFF090004F120207
:20126000801204519000531202D5E94A600F900076E0F58275830012008FFF80027F009093
:201280000076E02458F582E43400F583E06F6002C322900076E004FFF0D3900057E09F903D
:2012A0000056E0940050BD221202F5E4FCFD229000F151A8C0079000F11202D59000F4E01E
:2012C000FFA3E09000BECFF0A3EFF0D00701E6EFB40109D2AD75FF0143AE4022C2AD75FF68
:2012E0000153AEBF22E5C85402FF75C80222E5C85404FF22E5C85401FF22FFFFFFFFFFFF65
:20130000FFFFFFFFFFFFFFFFFFFFFFFFFFFFFFFFFFFFFFFFFFFFFFFFFFFFFFFFFFFFFFFFED
:20132000FFFFFFFFFFFFFFFFFFFFFFFFFFFFFFFFFFFFFFFFFFFFFFFFFFFFFFFFFFFFFFFFCD
:20134000FFFFFFFFFFFFFFFFFFFFFFFFFFFFFFFFFFFFFFFFFFFFFFFFFFFFFFFFFFFFFFFFAD
:20136000FFFFFFFFFFFFFFFFFFFFFFFFFFFFFFFFFFFFFFFFFFFFFFFFFFFFFFFFFFFFFFFF8D
:201800000224CC1A661A6B227FB8EF90181393901900730A20364CE55DFF22EFF55D225A53
:201820002D5761766520342E33380002483CE4FFFE121B93600C0FEF70010E09E970F20A8D
:2018400080EF22822D1C1613111010024075902F69EBF0A3EAF0A3E9F0E4902F71F0A3F088
:20186000902F6F74FFF5F0121CAC45F0603C902F6CE0FBA3E0FAA3E0F9121B93FF902F6951
:20188000E0FBA3E0FAA3E0F9902F71E475F001121CAC85F082F583EF121C0DEF60C2902FB7
:2018A0006DE475F001121C9680B6902F69E0FBA3E0FAA3E0F922C2D5E830E70FB2D5E4C386
:2018C0009BFBE49AFAE499F9E498F8EC30E717B2D51218EC121DDCE4C39BFBE49AFAE4991C
:2018E000F9E498F88003121DDC30D50DE4C39FFFE49EFEE49DFDE49CFC221AB11AB61ABB8A
:20190000C05D7419C0E0C082C083755D0AE5FF54CF4490F5FF22C05D7419C0E0C082C0835C
:20192000755D20E5FF54CF4490F5FF22C05D7419C0E0C082C083755D36E5FF54CF44A0F50D
:20194000FF22C05D7419C0E0C082C083755D4CE5FF54CF44B0F5FF2290800221169087FF09
:2019600021169088022116908F512116908FF72116908FFA211690900121169097F92116EC
:201980009087762116908FB5211690AFFB211690B7EB211690B131211690B852211690AFE5
:2019A00041211690B656211690BBFC211690BC02211690A5A6211690C10B211690A5F121ED
:2019C0001690C4F8211690C50D211690C51F211690C53C211690C708211690C86921169044
:2019E000C8D1211690CA54211690CA09211690CA36211690C9AF211690C477211690BE0141
:201A0000211690BED0211690BDFF211690B4A42116909F66211690BF53211690BEDB211693
:201A200090BFAA211690CA6B211690B686211690B79D211690B757211690B6CC211690C8E6
:201A400063211690C791211690CD30211690B3A8211690C706211690C660211690C6B62139
:201A60001690CD3D211690B636211690B170211690C75B2116909ECE212C908000212C90C5
:201A80009FA4212C908453212C909FFC212C909FFD212C90A003212C90A53B212C90A7ECB1
:201AA000212C90ABC2212C90B229212C90B5DA212C90BFDF212C90C25A212C90C391212CC6
:201AC00090C8F7212C90AA56212C90C8FF212C90A9F4212C90AB57212C90B8E8212C90CAB9
:201AE0002C212C90B316212C90CB32212C90CBE5212C90CBF6212C90CDF9212C90CD75212C
:201B00002C90CFF3212C90CFF9212C90CFFF212C90937D212C9092E0212C90BE8E212C90B5
:201B2000D00C212C90A6A6212C90A7D9212C90D2C8212C90D23B212C90D2F6212C90D32A63
:201B4000212C90BCC4212C90A777212C90D397212C90BCEA212C90BCF5212C90BDA6212C48
:201B600090B9F9212C90D3BA212C90D414212C90D463212C909654212C90B327212C90A7DE
:201B8000EA212C90D4F8212C90D4FD212C90D4FE212C00BB010689828A83E0225002E722D1
:201BA000BBFE02E32289828A83E49322BB010CE58229F582E5833AF583E0225006E92582E3
:201BC000F8E622BBFE06E92582F8E222E58229F582E5833AF583E49322BB010989828A8323
:201BE000F8E028F022500327F722BBFE05F8E328F3228A838982F8E4932822BB01068982CC
:201C00008A83F0225002F722BBFE01F322F8BB010DE58229F582E5833AF583E8F022500639
:201C2000E92582C8F622BBFE05E92582C8F222EF8DF0A4A8F0CF8CF0A428CE8DF0A42EFE30
:201C400022BC000BBE0029EF8DF084FFADF022E4CCF875F008EF2FFFEE33FEEC33FCEE9D0F
:201C6000EC984005FCEE9DFE0FD5F0E9E4CEFD22EDF8F5F0EE8420D21CFEADF075F008EF47
:201C80002FFFED33FD4007985006D5F0F222C398FD0FD5F0EA22C5F0F8A3E028F0C5F0F8BE
:201CA000E582158270021583E038F022A3F8E0C5F025F0F0E582158270021583E0C838F0E5
:201CC000E822BB010A89828A83E0F5F0A3E022500687F009E71922BBFE07E3F5F009E3192D
:201CE0002289828A83E493F5F074019322BB0110E58229F582E5833AF583E0F5F0A3E022CD
:201D00005009E92582F886F008E622BBFE0AE92582F8E2F5F008E222E5832AF583E993F5C3
:201D2000F0A3E99322BB010A89828A83F0E5F0A3F0225006F709A7F01922BBFE06F3E5F06B
:201D400009F31922EF2BFFEE3AFEED39FDEC38FC22E88FF0A4CC8BF0A42CFCE98EF0A42C53
:201D6000FC8AF0EDA42CFCEA8EF0A4CDA8F08BF0A42DCC3825F0FDE98FF0A42CCD35F0FC3B
:201D8000EB8EF0A4FEA9F0EB8FF0A4CFC5F02ECD39FEE43CFCEAA42DCE35F0FDE43CFC22D6
:201DA00075F008758200EF2FFFEE33FECD33CDCC33CCC58233C5829BED9AEC99E582984044
:201DC0000CF582EE9BFEED9AFDEC99FC0FD5F0D6E4CEFBE4CDFAE4CCF9A88222B800C1B9CB
:201DE0000059BA002DEC8BF084CFCECDFCE5F0CBF97818EF2FFFEE33FEED33FDEC33FCEBCA
:201E000033FB10D703994004EB99FB0FD8E5E4F9FA227818EF2FFFEE33FEED33FDEC33FC85
:201E2000C933C910D7059BE99A4007EC9BFCE99AF90FD8E0E4C9FAE4CCFB2275F010EF2FBF
:201E4000FFEE33FEED33FDCC33CCC833C810D7079BEC9AE899400AED9BFDEC9AFCE899F85F
:201E60000FD5F0DAE4CDFBE4CCFAE4C8F922EF5BFFEE5AFEED59FDEC58FC22C3E49FFFE43A
:201E80009EFEE49DFDE49CFC22EB9FF5F0EA9E42F0E99D42F0E89C45F022E8600FECC313B5
:201EA000FCED13FDEE13FEEF13FFD8F122E8600FEFC333FFEE33FEED33FDEC33FCD8F122C1
:201EC000BB010789828A83021F025005E9F8022125BBFE05E9F802213122E0FCA3E0FDA372
:201EE000E0FEA3E0FF22E493FC740193FD740293FE740393FF22E0F8A3E0F9A3E0FAA3E062
:201F0000FB22ECF0A3EDF0A3EEF0A3EFF022A8828583F0D083D082121F25121F25121F255A
:201F2000121F25E473E493A3C583C5F0C583C8C582C8F0A3C583C5F0C583C8C582C822A449
:201F40002582F582E5F03583F58322E0FBA3E0FAA3E0F922F8E0FBA3A3E0F925F0F0E582E8
:201F6000158270021583E0FA38F022EBF0A3EAF0A3E9F022BB010789828A83021F4B50050A
:201F8000E9F802213DBBFE05E9F802214F89828A83022161BB011A89828A83D0F0D0E0F8FD
:201FA000D0E0F9D0E0FAD0E0FBE8C0E0C0F0021F6B5016E9F8D083D082D0E0F9D0E0FAD050
:201FC000E0FBC082C083022146BBFE16E9F8D083D082D0E0F9D0E0FAD0E0FBC082C083025E
:201FE000215822D083D082F8E4937012740193700DA3A393F8740193F5828883E473740203
:20200000936860EFA3A3A380DF8A838982E473EC8EF0A4CCC5F0CCCDF8EFA4CEC5F02DFD5F
:20202000E43CFCE8A42EC8C5F03DFDE43CFCEFA4FFE5F028FEE43DFDE43CFC22E709F60820
:2020400070FA8046E709F20870FA803E88828C83E709F0A370FA807EE309F60870FA8076F0
:20206000E309F20870FA806E88828C83E309F0A370FA806289828A83E0A3F60870FA805665
:2020800089828A83E0A3F20870FA804A80D280FA80C680D4806580F28031801080A680EAE9
:2020A000809A80A880DA80E280CA803189828A83ECFAE493A3C8C582C8CCC583CCF0A3C8FD
:2020C000C582C8CCC583CC70E9800D89828A83E493A3F60870F9ECFAA9F0EDFB2289828A74
:2020E00083ECFAE0A3C8C582C8CCC583CCF0A3C8C582C8CCC583CC70EA80DD89828A83E440
:2021000093A3F20870F980CE88F0ED2402B4040050C4F582EB2402B4040050BA232345822A
:202120002390208C73ECF608EDF608EEF608EFF622ECF208EDF208EEF208EFF222E6FB0864
:20214000E6FA08E6F922EBF608EAF608E9F622E2FB08E2FA08E2F922EBF208EAF208E9F25A
:2021600022E493FB740193FA740293F9224102B200C13241326A00C13B410415060114006F
:202180004104140141041301C128011A00011700412E6200C129C12BC11B4127020041271B
:2021A00068FF41276000C11AC1194127690041276A0041276101C11D41270100C12EC121B6
:2021C000012B00C11EC11F4330E80000004130E7004130EB00012000C148412C0000412B02
:2021E000FF00412A0A00412A0500412A0600412A0800412A0900412ACB0AC14D412A4A00A0
:20220000412A4B00412BC2004130A6FF4130A1FFC1AFC1314130A000C130432B470000009A
:20222000412B8400412E2400412E2D00412E3100412E3000412E2C00412E2700422E25007A
:2022400000422E330000432D3C000000412D4100492D234C6966656C696E65004D2D2E42D5
:20226000617474657279416C61726D00412D4C014A2D4220013003710580035A01422D2C21
:202280008003C150412FC400C151412E0500412E0C28412E1000422E030000412E0F00419C
:2022A0002E0200412E080060BA2647000000000000000000000000000000000000000000F0
:2022C0000000000000000000000000000000000000000000000000000000000000000000FE
:2022E0000000000000000000000000000000000000000000000000000000000000000000DE
:202300000000000000000000000000000000000000000000000000000000000000000000BD
:2023200000000000000000000000000000000000000000000000000000000000000000009D
:2023400000000000000000000000000000000000000000000000000000000000000000007D
:2023600000000000004121C3004122840041207000C139C13841206EFF412026004121C412
:2023800002412210FF4121FE0041285CFF4128D8FF4128EBFF4128ECFF4128EA004128DF23
:2023A000004128E9004328E40000004128E8004328D90000004128DE004128E7004228EDF9
:2023C00000004228E000004228E200004128EF00412941FF605028F001030300000505008C
:2023E0001B7E0501001B7E000701000002030300000201001B7E0306001B7E0301001B7EBA
:202400000101001B7E0102020000000804000004040500000004051B880005000000FF0350
:20242000FE0000FFFFFE1B795929450207D01B830307D01B830500141B830107D01B830427
:2024400007D01B83E00C02611D0086000000020070010304260090216DE47E0193700122CE
:20246000A3FF543F30E509541FFEE493A360010ECF54E0B4E03AEFFAEEF9E493FBA3E493E2
:20248000FEA3E493FFA3E493FDC083C082C001C002C006C007121971D007D006D002D0018D
:2024A000D082D083A30FEF70010EDADAD9D880A954C025E060105005A3DFFD809CA3A3A367
:2024C000DFFDDEFB8093A3A3DFFD808D75818C75FF03759E021219200230D60225A5902127
:2024E0006DE47E019360F4A3FF543F30E509541FFEE493A360010ECF54E0B4E00EEFFAEE5C
:20250000F9A3A3A3A3DAFDD9FB80D654C025E0604B5026E493A3F85407240CC8C333C45488
:202520000F4420C8834004F456800146F6DFE480B00102040810204080E493A3FAE493A372
:20254000F8E493A3C8C582C8CAC583CAF0A3C8C582C8CAC583CADFE9DEE78085E493A3F8CC
:20256000E493A34003F68001F208DFF40224E1788CE4F6D8FD9000007F007E10E4F0A3DF0D
:20258000FCDEFA904FFFA3E583C394204011FEAF829020000E0FE48002F0A3DFFCDEFA12FC
:2025A00019200224DE22325E308084708559718672737A985AEF5E3080847085597186722A
:2025C000737A5AEF5E98EF5E983080847085597172867A735AEF3F241E16110E0B090705F3
:2025E00004030201F0C8A791776760463835323024222014000101020203030404050506F0
:20260000060707000000000000000000000000000000001B4C1B511B561B5B1B601B651BD6
:202620006A1B6F980500000DFA20000DDC7000000000020C00013F3F3F04040419E419E9B2
:2026400019EE19F319F819FD1A071A16BED51B241B291B2E1B331B381B3D1B421B47198F30
:20266000199E19A319A819AD19B71B011B061B0B1B101B151B791B7E1B831B881B8D1AC5DD
:202680001ACA1ACF1AD41AE81AED1AF21A981A9D1AA71AAC1AD91ADE1AF71AFC1B1A1B1FF9
:2026A0001A3E1A481AA21AC01AE3E4F97D0CAC0109EC90181F93FC0FEFAA0670010E14F539
:2026C000828A83ECF0DDE77F03228F828E83E4F0A37404D1DD7426D1DDA3E4F022F08F8286
:2026E0008E83A3A322122BB9F13E1219C1F1E79002B3E064017F0060027F01121A2A121A0B
:202700002F121999125B0D121962F1D4FE4FFDA3E0FC4DFDA3E0FB4D600BEE5FFFEC5FFF1B
:20272000EB5FF47002F14D90121CE0FF540324B6F582E43402F583E06F9002B1F022E4FF4D
:20274000F1EDE4F00FEFB403F7E4F55B22E4FFF1B4EF603AF1CDF18F9002B6E0C394C040F7
:20276000F37B017A0279B8F18FF1D45FFFA3E05FFFA3E05FF460EA90121DE030E0047F0166
:20278000F1B4E490121CF0F1CDE0FD1219672290043F121F6BC23CE4FFF1B4BF010B90045F
:2027A0003F121F4B123C57923C7F01F1B4A23C22EFF07F01EF600A12334BE4FD1233EA80EE
:2027C00009F1DC12424DE433FF227F01227B017A0279B6229002B6E0FFA3E022F1F7EF704C
:2027E00005124B9080F622E4F559C2332275F0E5EF900001021F3FE4FFF1EDE054F0FEBE3B
:2028000040037F00220FEFB403EF7F012275FF0275E40475E40175E4022275FF0275E40411
:20282000E4F5E42275FF02E5E430E10675E40675E40322903144121F02903144121EDA51EE
:20284000BF903148E06F603511243127EF6004B16A80F7512A316A902E58E0FF7180600AF4
:20286000903144121EDA78101184903144117F903144B185903148E0FF51ADD322C322128A
:202880001EDA7808121E9AE4E5C820E2FB8FEB227F0151B390326C7401F090326CE0602E19
:2028A000B18B311B90326CEFF05136310A902E56EFF0513690326CE05401F17860DCA3E0BC
:2028C000F460D7EF30E7D3E490326CF080CC316A7F9F1188311B902E573119902E5C311945
:2028E000902E5DEFF051AF902E55E0F4601BA3E0F46016902E5CE0FD541F240FA3F0EDC4AE
:202900001354074480902E5CF022316A7FD711887FFF1188311F902E55EFF07FFF1188E57A
:20292000C820E2FBAFEB227F0151B3303D14B18B311B90326EEFF0513690326EE020E002E1
:20294000C23D303D17310A902E56EFF178600BA3E0F46006EF30E702C23D5136E4FF51B390
:20296000A23DE433FF227F0151B3902E5AE0121FE3298D04299514299A15299F1729AF3065
:2029800029B43429B93629BE37000029A75352EF855280802F5353EF80085353DF8003530E
:2029A000537F855390801D5354DF8554A080155355FE800D5355EF80085355BF80035355C8
:2029C0007F8555B07F0CDFFE22902F73121F02902F77121F6B11243127EF6004B16A80F7BB
:2029E000512A316A902E58E0FF7180600A902F73121EDA78101184902F73117F902F731212
:202A00001EDAE4801B902F7AF18A6018902F77121F4BEA494B6007902F77F1808001E4FF71
:202A2000118880E15136E4FF41B37F0151B3D23D316A7F061188F1CCEF70FB902E5CE0F4ED
:202A4000600A90326B7406F0F12270FC902E5AE0121FE32A6F042A73142A78152A7D172AFD
:202A60008D302A92342A97362A9C3700002A85F171802F4353108008435320800343538078
:202A8000855390801D4354208554A08015435501800D43551080084355408003435580851E
:202AA00055B090326B740CF0F12270FC2211885136E4FFEFB4010443FE202253FEDF2290C3
:202AC000313F121F0211243127EF6004B16A80F77178600A90313F121EDA781011849031A6
:202AE0003F117F90313FB185311B903143EFF051AF903143E0FF2211243127EF6004B16AA2
:202B000080F7512A316A7F0111887F0311885136E4FF809F902F7C121F02902F80121F6B22
:202B200011243127EF6004B16A80F77178600A902F7C121EDA78101184902F7C117F902FE4
:202B40007CB185902F83F18A600E311B902F80F1D2902F81F1D980EB5136E4FF41B3902EB9
:202B600055E020E01231667F3D11887F2A11887F8011887FA651AD227F0151B3316A7F0362
:202B80001188902E5BE064022290326DEFF0902E63E064027022316690326DE07FAB6002E2
:202BA0007FB91188513690326DE0902E62F070047F1EDFFEE4FF51B3227A2E795A7F031298
:202BC0005B1E7A2E79637F08125B9F7A2E79607D027F091219D57B017A2E795E7D027F0BD9
:202BE0001219D5902E5EE0FEA3E0FF4E6006BEFF1BBFFF18902E63E024FD6003047004F109
:202C0000948009902E5EE4F0A37440F0902E63E024FD6003047008902E5B7403F0800690C9
:202C20002E5B7402F0902E5AE0121FE32C48042C4D142C55152C5D172C73302C7B342C8305
:202C4000362C8B3700002C68125B46804775FF01534FEF800E75FF01534FDF800675FF01BD
:202C6000534F7F854FC9802C75FF015350DF8550CA802175FF015351FE801675FF015351ED
:202C8000EF800E75FF015351BF800675FF0153517F8551CB51367F11B17FE4FF718911905B
:202CA000902E587402F0902E5CE0247F6009047015B191740A8006715EB1917458F0902E38
:202CC0005B7403F0F194902E5DE0F46002A168902E60E0FEA3E0FF64104E7006902E5D740E
:202CE0000EF0EF64204E7006902E5D740FF0EF64404E7006902E5D7410F0EF64804E700694
:202D0000902E5D7411F0E4B5070AEEB40106902E5D7412F0E4B5070AEEB40206902E5D745C
:202D200013F0E4B5070AEEB40406902E5D7414F0E4B5070AEEB40806902E5D7415F0E4B520
:202D4000070AEEB41006902E5D7416F0E4B5070AEEB42006902E5D7417F0E4B5070AEEB4C1
:202D60004006902E5D7418F041F7E51530E20FE51520E50AE51530E0057F011227B422EF8D
:202D80004420F5FE22121EDAE40188316A7F0501887F10B17F902E58229029B4F1E0121E36
:202DA000DA9029BC121F029029BAE0FFA3E09029C0CF80679029C0E0FEA3E0FF4E6062C3E1
:202DC000EF9440EE94004006A37440F080059029C2EFF0F12AFFF104EFF09029BC121EDAD5
:202DE00071149029C2E0FFC39029C1E09FF09029C0E09400F09029BC121EF69029C2E4FC75
:202E0000FDFE121D449029BC121F02D121F12AFDF1E7EDF01219DF9029B4EEF0A3EFF08086
:202E2000939029B4E0FEA3E0FF22903227121F6BD1EEEF2408F1BD7A2D797DF1027402F00D
:202E40007114902D7D12525C902D90D1FC7A2D7982F102740EF07114F10BEE3480F1C0D12D
:202E6000E8902D84F1157F0F7E1DD1C9FFAEF0C006C007F10BE43ED1E0902D86F115D00747
:202E8000D006D1C9FFAEF0C006C007F10BEE3480D1E0902D88F115D007D006D1C9FFAEF01A
:202EA000C006C007D1EED1E8902D83E02400FE902D82E034E89029BAF0A3CEF0D007D0061F
:202EC000D1C945F0C37001D322B199903227121F4BEE8FF0121D25903227121F4B021CC245
:202EE000FEED3401FDE43CFC9029B6021F02902D77E0FEA3E0FFE4FCFD902D94121EF6021D
:202F00001D447B01902F83E4F0A322902D90121EDAE42FFF22E0FFA3E09029BACFF0A3EF48
:202F2000F02290326BE014F0E0227B017A2979C39029C2E02211243127EF6004B16A80F722
:202F400022E075F002A42481F9740F35F07B02FEAF01E4FCFD41BF9030C5F1EEC00790302B
:202F6000C5121F4B9030C8E0FFF104EFF0D007611443521085528022F0902E55E0FFF42273
:202F8000E475F001121F54021B9374FFF5F0121CAC45F022902E5E7401F0A3E4F022FF7E92
:202FA00004FDFCE0F8A3E0F9A3E0FAA3E0FB121D51E47B7DFAF9F8121DDCEF2401FFE43E3E
:202FC000FEE43DFDE43CFC22E4FF41B3E5C85404FF22121F4BEF021BFBE475F001021C9619
:202FE000EEF0A3EFF0A322903018E4F0A322121F6BE4FCFD22900433124A0EEBF090121DD5
:20300000E0543060071237F35002C322900433E0B4040BA311609004337403F0802590048D
:2030200033E06405701890121DE090043430E50611607F1F80041168E4FFF1DA8005900437
:20304000341168900433E09002B2F0900435E0901222F0124AB79002BDEEF0A3EFF0D322D4
:20306000E0FB7D017F018006E0FB7D01E4FFEB600875FF0153CDFD800675FF0143CD02EDD6
:20308000600553FBDF800343FB20EF600775FF0243E1402275FF0253E1BF2290121DE07BC6
:2030A000027D0130E5087F01116E7F1F8006E4FF116EE4FFF1DA7F0143FB1075FF0243E6D3
:2030C00040EF600D75FF02E5E120E7FB43FB0D800343FB0E80FE75FF0275E404E4F5E4C22C
:2030E0002775FF02901215E0603BE5E6540364017033121A52123897401F901222E0600D08
:20310000E014F0700812256FE4901215F0901215E070022199119B219912256FD227E490E6
:203120001215F0807412256F124FCF9002B3EFF0901200E0B47A14901214E0B49C0D900241
:20314000B3E0FF64056004EFB4032EE49002BCF09002BCE0FFC394405013E42FF582E43451
:2031600012F583E4F09002BCE004F080E3901200747AF0901214749CF01219DA7A1279101C
:203180007F01125B1E7A1279117F21125B9F7A1279127D017F221219D5121A57124FCF1267
:2031A0004B619002B3EFF01219CB124B1C9002B3E0FFB40602800C3027047F028005900271
:2031C000B3E0FF121A75EF24FFB3923B75FF0253E6BF9002B3E064016005E4901215F01230
:2031E0004820121A5C1226E5901215E0700F203B0C121A7A7B017A27796C121A0C90121DA6
:20320000E030E00280033027057F011227B4D2AF303B78124952715D121A891219D040F3AE
:203220009002B2E06042124F5FEF7005124B0A4037E51470FCE51520E50312424D12195D36
:20324000EF70FA124F945005124F8050057F01122B899002B2E0B40204E4FF80099002B2C1
:20326000E0B403047F0111B8124B90E51530E1A3125B284002E4F0E51520E506714B7D01E5
:2032800071EA9002BC714EF1E08088124030123FFE500312274D9002B2E0605E902702E0C8
:2032A0007058124F5FEF7005124B0A404DE51470FCE51520E50A90121DE020E00312424D7D
:2032C00012195DEF70FA124F945005124F8050057F01122B899002B2E0B40203E48018905E
:2032E00002B2E0B403047F01800E9002B2E0B405099012157401F0FF11B8124952715D121A
:203300001A7F9002B0E07005124B90801512406CFF9002B0E0FEC3EF9EC394064002E4F05B
:20332000D2AD121807E51530E119125B284002E4F0E51520E506714B7D0171EA9002BC71B5
:203340004EF1E0121A4312480B418B9002B4E075F0AA9002BF121F3FAF82AE8322900000A4
:20336000E06067E014F0E4F55AE55AC3940C50EDE55A71CCE0FEA3E04E604BE55A71CC124C
:20338000455C45F0704071DAE0FF6008F4600571DAE014F071DAE06013E55A124A84E0FEF2
:2033A000A3E0FFE55A71CCEEF0A3EFF01249B5E0FEA3E04E600D1249B5E0FEA3E0AA06F969
:2033C000122009122D6A055A809F22EF75F007A4245EF582E43429F58322E55A75F007A447
:2033E0002464F582E43429F58322900439EEF0A3EFF0E514706FF1F65004C2449166900422
:2034000039E0FEA3E08E11F512AE11AF127DAA1252E1E4F5FF75D901F510E5155421602B5A
:20342000E51530E504E4FFF1BEE490043BF090043BE004F01239F4EF600990043BE0C39404
:203440001040EB7F02121A8E5315DE900413E07F00B403027F01F1BE1241E5D2449166D2AB
:20346000EBA22692ED2290326FE5F4F0E0547FF5F47F827E00D1D9F1105005E5FC20E6F705
:2034800030440890326FE04480F5F4D1D5F1105005E5FC20E6F775FF01E5D520E702C322FB
:2034A000E5F4D330E601C322900427122FE0121F6BC2EBE5146002C15AE51530E202C322D6
:2034C000F1FE5004C244916612422AE5D120E0FBE4F510C227900428E05407C39403E494E2
:2034E000005022900430E0FF90042CE02FFFE433FED3EF9440EE648094804009431504A211
:203500002692EDD32290042D121F4BCFE9CF8A118F12900430E0F516AE1112530B90042976
:20352000121F4B8B1C8A1D891E90042CE0F51F900427E0FCA3E0FD54606032900431E0FF65
:203540001244F7D162121B93FB7A00900425E0FEA3E0FF7C007D17121C2FEF2BFFEA3EFEF1
:20356000EF2414FBE43EFA7D027F01C141900427A3E05407900414F0751408900429121F5C
:203580004B12421890042CE0FFAD16124543900414E06403702A7B01FDFFD1A1D162D17889
:2035A0005007D1627401121BD9E4F5FF125B96D162121B932428FBE433FA7D03E4FFC1417B
:2035C000900414E064027023D19DD162D1784007D16274FF121BD9125B74D162121B932495
:2035E00014FBE433FA7D027F018056D19CD162D1784007D16274FF121BD9E4F5FFD170449D
:20360000104E7F0560027F0AEF547FFFE5D254804FF5D2E4F5FF43D280D162121B93FD7CA2
:2036200000D17044104E7E0060047F0A80027F05EF25E0FFEE33FEEF2DFBEE3CFA7D017FEC
:2036400001124EA4D170FF1242364006A22692EDC322A22692EDD2EBD322A22692EDD2EB2C
:20366000C322900429121F4BE92407F9E43AFA22900427E0FEA3E022121B93FF900430E044
:20368000FD90042CE02DFDE433FCED2401FDE43CFCD3EF9DEC6480F874809822E4FB7D01F3
:2036A000FFE4F5FF75D102E5D120E0FBE4F5FFF5D1EF6008E4F5FF43D2808006E4F5FF5327
:2036C000D27FEB6006E4F5FF43D104ED6006E4F5FF43D108227FE87E03D1DD804390317164
:2036E000EEF0A3EFF07B017A3179731253445014903173E0FEA3E0FF903172E09F903171D2
:20370000E09E400B903171E0FEA3E0FF1239D72275FF03E591C330E701D3227E001239D7AD
:2037200075FF0343918022903181EFF0A312540EF075FF01124275EF64016002C322E5F4C2
:2037400030E602C3227FE87E031239D7F120F1A8400122C2449166903181E0FFF1BE53F441
:20376000DFD24491667F787E0012536575FF0153E4BFE5E430E7FB12578E7F8A1253CB3078
:20378000E606125402E4800875FF01125402E5D9121BFB75FF0143E440123FF6400343F409
:2037A00020F1A8400122D322E5F730E50FE5F754C07004F11040F1123ACAC322D32275FFFE
:2037C00001E5D530E602C322E4F5FF439A80EF125BAEE4F5FF539A7FD32275FF028FE322AF
:2037E0009002B5E0FD0219BCC2AFEFF45215D2AF2280E7A22722C2EBA2ED9226C2EDE5F4A2
:20380000C330E701D322900445EFF0C2451239B6D234900445E09031E8F0D235A3E4F0A39F
:20382000740DF03100E4900446F01237FE503F900446E07039E5F754C060EF118411849006
:203840000446EFF0BF55131184900446125B866F90044670147402F080D0900446E0B45471
:20386000057433F080C49004467401F080BC900446E0B40207C244123466800011F39004AC
:2038800046E0FF22E5F720E008E5F754C070F5FF2243F701AFF9225315FEE51530E5057F89
:2038A000011237BE31F4EF70FB7F02121A8E7F01110690044CEFF0BF0202801390044CE0DA
:2038C000B43311E4F07F011106BF020D90044C7401F08005E490044CF090044CE0700D12EA
:2038E00037FE5005C24412346612456390044CE024FF22C234E49031E8F0C235A3F0A3F03D
:2039000075FF01E5D520E702C322C24531B620340221A853F4DF9031E8E0FF1237BE75FF54
:203920000143D81030350543F440800353F4BFE4F5FF53F5F09031E9E0FAA3E0FBEA42F5BE
:20394000EBF5F6D24531B67FC812371BE4F5FFE59320E60512371040F3303558E5F430E358
:20396000047D288010E5F430E2047D288007E5F430E1027D2851CA7F2812371B12371040A3
:20398000FB7F7812371B1237105029F1C750F7125767EFC39D50EFF1C750EBE5F720E5E6E8
:2039A000C24531B651CA80DE53F4BFF1F6400543F420F1D5D322AFF4EF547FF5F430450594
:2039C000EF4480F5F475FF01E5D520E702C322E5F4D330E601C32275FF03D3EF9402EE9435
:2039E00000400874FE2FFF74FF3EFEEFF592EE540FF59122E4903179F0A304F0E490317CFB
:203A0000F0E5FA30E1FB75FF01E5D530E7037F0022E4F5FF75E508F1D5E5D530E61A75FF83
:203A20000190317BE5DAF0E4F5DA75FF01E5D630E3FB90317C7401F075FF03759B0475FC0B
:203A40004175FF03E59B30E7FBE4FB75FF038B95EB51D2FF1254160BEBB403EF75FF037595
:203A60009580E4F5FF758EC81253B075FF0153D5FB51CA7F1412371BB1AD75FF0143D504E0
:203A800090317CE0700951CA7FC812371BB1AD7B017A31797A12545290317AE090317970D5
:203AA00006E04404FF8002E0FF903179EFF090120EE0B4010675FF0143D81075FF0190313E
:203AC0007BE0F5DA903179E0FF2275FF03E4F59122E025E025E02401F582E43412F583E076
:203AE000FCA3E0FDA3E0FEA3E022902DB6121F0275FF0243E180F1AB12562A902DCB121F7D
:203B00000E002DC6C0E4F5FFF5A490120EF0A3F0902DC67402F0125BB6FFF595EF14601335
:203B200014601C24027027902DB651DFF1CE902DC28016902DBA51DFF1CE902DC3800A90C1
:203B40002DBE51DFF1CE902DC4E0902DCFF0125653902DCFE0700FF5FFF59675FF0175D7C8
:203B60000975F418805B90120EE004F0902DC6E0125BAE902DCB51DFFF902DC7125702C375
:203B8000121E89500A902DC751DFFFA3121F02902DCFE0FF1254AB902DC5E0FFA3E0FDA28A
:203BA0004292401255D8A351DFFF90314A121F02902DC6E0FF125660902DC651D1FF12546E
:203BC00016125B8D600261167402F0125BB6F595E5F45407701B902DCB122F9E7801121E1A
:203BE0009A902DC61256F2121F02EB51D2FF125416125B8D70D575FF03759580F1F6400328
:203C000043F420A242924112550A902DCB51DF2420FFEE344E122FC0E4FB7A04F9F8122F2A
:203C2000AE7801121E9AC23FB1B6E4F5FFE5BD54F84404F5BD9012137401F07E127F01E45D
:203C4000FDEF2DF582E43EF583E0FC901213E02CF00DEDB412EB22902EF412540EF0902E0C
:203C6000FA121F0E00000001902EFE7401F0F5FFE5D554C070051237FE5002C322E4F5FF5C
:203C800053967F75FF0175D5047F3FFEB1A875FF0143D508E4F5FF5394FBF5FF53847FF556
:203CA000FF7598FF902EF8E5F4F075F49C75FF01A3E5E4F075E4257B017A2E79FE1253D353
:203CC000902EFEE064016002A186F5FF902EF77414F0902EFA51DFFF7801121EAD902EFA44
:203CE000121F02E5A730E1FB43A702902EFA51DFFFE5A730E005E47B018002E4FBFAF9F8D9
:203D0000EF4BFFEE4AFEED49FDEC48FC902EFA121F02902EF7E014F070B8902EFA51DFFF3E
:203D20007810121E9A7B6D7A4E79C67841121D51EF2439FFEE3430122FC0E4FBFA7901F820
:203D4000121DDCEE547FFEE4FDFC125B56902EFA51DFFFEB6FFFEA6EFEE8CDEFCDCCEECC6C
:203D6000ECFF902EF4125405EF121BFB902EF4125405900001ED121C0D90120FE030E606A1
:203D8000E4F5FF75968075FF01E4F5D5902EF8E0F5F475FF01A3E0F5E41254F9902EFEE052
:203DA000B40103D38001C32231D712372075FF03E59120E7FB22902DEA121F02E4F5FF7569
:203DC000BB0575BB8575FF0175D502203F087F3FFEB1A81253B075FF0143D520303F02C13D
:203DE00085E4F5FF538EF7438E077D04E4F5FF8DBCF5FF43B102E5B130E2FBE4F5FFAFDF21
:203E0000EFFEACDEECFBEBFFED25E024E8F582E4342DF583EEF0A3EFF0E4F5FFF5FF53B1F8
:203E2000FD0DEDB40CC6902DEA51DFFF7809121E9AA3EEF0A3EFF0E4FDED25E024F2F58281
:203E4000E4342DF583E0C313FAA3E013FBF1E3E0C313FEA3E0132BFFEE3AFEF1E3EEF0A3A1
:203E6000EFF0ED240490120DF0EDC394075016CFEDCF0DEFF1E41247DD902DEFE09F902D84
:203E8000EEE09E50B4E4F5FF758EC8F5FF90120DE0F5BCE4F5FF75BB8075FF01F5D5229062
:203EA000306F124A0EEBF09030757401F0C2431236D51237105005E5FC20E6F6124275BF4F
:203EC0000108E4F5FC75FC408008124275BF0202D322F1D5903070E0FF12570E75FF015336
:203EE000D5DF53FAFB90306FE0FF1237BE903070E090306FB4080951D12452122FBD800394
:203F000051D1FF125416903071E0FFF1F075FF0175FF03759B041236D575FC42E5FC20E161
:203F20000512371040F3903072E0F075FF03E59B20E70512371040F3E59B20E70C75FF0355
:203F4000759B1FF1ABD243804FF1DC1253D3903070E0FD90120FE05D701C90306FE0FFF127
:203F6000DC12431E90120FE0FF903070E0FEEF4E90120FF091351253B07B017A3079731277
:203F80005344500FC3903074E09420903073E0940340E6F1DC125452B1AD304302C1A79080
:203FA0003075E0B40103D38001C322E5FA30E1FB75FC8075FF0153D5EFE4F5FC75FC40514C
:203FC000CAE5FC20E6FB2275FF01E5E43322FF902DC7021F0275FF0153D8EF227B017A3003
:203FE000797522ED25E024F0F582E4342DF5832275FF018FDA2290120EE0D3940122901299
:204000001CE070111227D44FFFA3E04FFFA3E04F7003D38001C3229002B1E064AA2411FF14
:20402000F022AE071117EE04FEEF8EF084AFF022303A0C902702E07006FF121A39C23A11F9
:20404000440219C6302724116EFF900424E0FEEFC39E400AEF9ED394024010C2272290042D
:2040600024E0F42FD394014002C22722C2AD9029B2E0A3E022C0E0C0F0C083C082C0D0752B
:20408000D008C0FF51758F18E5186402704DE51424F8603D2407600221C3900425B15C45CE
:2040A000F07024AB1CAA1DA91E5118AD16AF1FB14312369C75FF00125B9643FA0475FF0029
:2040C00031EB75140821C343FA0475FF0031EB21C3C2EB75140043150421C3E51864016062
:2040E0000221C3B155400221C3E510702A851282851183E090044BF0E0FF64556004EFB49F
:20410000540AD227116E900424F0219475100275FF0075D90821C3E5106402705631D9E02C
:2041200090044BF0125743124E77900413EFF090044BE0FFD394094025900413E0D3940224
:20414000400CEFD394AA7F0040027F01800D90044BE0D394407F0040027F01EF600431D04A
:20416000803290044BE0FFF51675FF008FD97510038050E5106403704A31D075FF00900471
:2041800013E0C39403E5D350055402FF80035401FFEF600431F2802BC24412346675FF0052
:2041A000512DE5D120E0FBC2EB431502751000900413E0B40307151631D9E516F09002B598
:2041C000E516F0D0FFD0D0D082D083D0F0D0E032302705C2271238F322E5122407F582E41D
:2041E0003511F5832243FA04E4F5FF53D1FD43D101225125E5D120E0FBE4F5FF75D9019090
:204200000413E07F00B403027F011237BE31E5D244123466E4F51022E4F5FFE9125302EAF3
:20422000540F42D622C244123466E4F5FFE5D154FE4402F5D1224315015315DF51A191A658
:204240004004E4F514225315FB31E5D322E51470221237F65005C244123466B163512AE558
:20426000D120E0FB4315205315FEE4F510A22692EDD322C3227FFA12371BE5FC30E605129F
:20428000371040F6E5FC30E6037F032275FF01E5D530E6037F0222E5D57F0030E7027F0146
:2042A00022EF30E303AF1322AD1B202804EE30E00BE517C394F0502051ED8018E51A6006E8
:2042C000FDE4F51A8012E517C394F0500BE517540FFF600451DBAD07AF0522124E2EFFC3F6
:2042E000940E40027F0DEF9025D693FF22900415E0FDFFC3740E7117EFC4F8540FC868FF91
:20430000EEC454F048FEE51754F0C39FEE1236957F005002AF05229FFFE49400FE22903156
:204320007DEDF0901211E0FEF46006A3E0FDB4FF0C90317F7418F0A37413F0800890317F5B
:20434000EEF0A3EDF0121B9364016002818190317DE0FE64086004EEB4040890317E742801
:20436000F0800690317E743AF0EF123AD2FF121E7BE49182EF24D8FFEE343FFEED3493FD42
:20438000EC3416FC7B007A80790378001218B6125B56903180E0FF90317FE0C37117E4FC74
:2043A000FD121D51ECC0E0EDC0E0EEC0E0EFC0E0903180E0FFE4FCFDFE9182D0E0FBD0E0E1
:2043C000FAD0E0F9D0E0F8EB2FFBEA3EFAE93DF9E83CF890317EE0FFE4FCFDFE121D51EFB8
:2043E0002454FFEE340B122FC0E47BA87A16F9F81218B6CBEFCB90317DE014605F14601BAB
:2044000024FE600C24FC7079E4F5FF75CE318006E4F5FF75CE21F5FF8BCF22E4FAE4F5FFD1
:20442000EA2440F5CEE4F5FFEAFFC37407711774432FF58274183EF583E4918A13C39DF5DE
:20444000CFE4F5FFEA2448F5CEE4F5FFEA901843918A132DF5CF0AEAB408C222E4F5FF75EF
:20446000CE01F5FF8BCFF5FF75CE0EF5FFEB25E0F5CFE4F5FF75CE0FF5FFEB75F003A4F528
:20448000CF227B64FAF9F8021D519325E0FDE433FCEB75F010A4FFAEF0121C41CDEFCDEBC5
:2044A000FFE4C313EF22900437EFF0900414E024FD601104700791ED7404F0801291ED7489
:2044C00008F0800BE4900438F09004367402F07F01121A8E900438E0FF900436E0FDA3E07A
:2044E000FBE4903072F0123E9F50E9D3229004387401F09004362290043CB16B751401E427
:20450000FBFDFF1236A17B017A0479165118E4FD7F02B143125B749004167455F090043C5F
:20452000E0900417F09004147402F090043EE090042530E507E4F0A3743CF022E4F0A37447
:20454000F0F022E4F5FF8FD4F5FFCFEDCF8FD522E4F514414DE5F754C024FF2274FFF5F011
:20456000021C96123FAB7F08021A8EEFF0A3ECF0A3EDF022902EE9121F02902EED121F6B39
:20458000D17E902EF01252D4902EE9121EDAD1935002C137902E5FE024FFFF902E5EE03438
:2045A000FFFEE4FCFD902EE9121EF6121E6E902EF2EEF0A3EFF04E6035902EF2F1DD902E87
:2045C0005FE09FFF902E5EE09EFE902EF2F0A3EFF0902EF0D1849FEC9E5002B16DD139E9B5
:2045E0004A6005D18BFF80427E007F00803C902EF0E0FEA3E0FF4E603C902E5ED184EF9D41
:20460000EE9C400A902EF2ECF0A3EDF0800D902EF0E0FFA3E0A3CFF0A3EFF0D139E94A609C
:2046200005D18BFF80047E007F00902EEEEE8FF0121C9680B9D322C322902EED121F4B90F2
:204640002EF2E0FFA3E0902F7ACFF0A3EFF0902EE9121EDA1229C9902EF2E0FEA3E0FFC3D6
:20466000902EF1E09FF0902EF0E09EF0902EE9121EF6E4FCFD121D44902EE9121F02902E4B
:20468000ED021F4BE0FCA3E0FDD322902EF2E0FEA3E022902D4D121F02902D51121F6BE472
:2046A000902D74F0D3902D55E0941E902D54E094004001227B017A2D7956902D54E0FFA3F5
:2046C000E0902F83CFF0A3EFF0902D4D121EDA122B14902D51121F4BE94A600B902D74E0D9
:2046E000F582F118FF80027F00902D74E02456F582E4342DF583E06F6002C322902D74E0D4
:2047000004FFF0D3902D55E09F902D54E0940050C122121F4B1E8E82758300021BAC90305F
:20472000C0121F4B902FF4121F6B9030C0121F4B902FF7121F6B7B017A227911902FF1F15D
:20474000CCE58F20E0FBF1D3538FF075FF017E10902FF4F112F593EE70F67E10902FF1F1C4
:2047600012F594EE70F67F01F180F1ECEF70FB7E10902FF7121F4B1E8E82F1E4EE70F222ED
:20478000EFB40103025AE775FF01E58F54F04406F58F2290312FF1CCE58F20E0FBF1D353DF
:2047A0008FF075FF01E4FF90312F121F4B8F82F118F5930FEFB410EFE4FF903132121F4B11
:2047C0008F82F118F5940FEFB410EF22121F6B75FF012275FF01538F0675FF0122E0FEA3BB
:2047E000E0FFC322758300E593021C0D75FF01E58F5401FF229002BAE0FCA3E04C700A90FA
:2048000002BAEEF0A3EFF0D322C3229002BAE0FEA3E0FF4E6009CAEECAC9EFC912200922DF
:2048200075FF02D2ADD2BD75FF02758E7175580975FF02E58E546F4480F58E22C0E0C0F0CF
:20484000C083C082C0D075D008C0FF75FF02E58E30E42975FF02E58E54EF4410F58E90007E
:2048600000E004F0E55830E002052CE558700B7558099029B2122FDA8002155875FF02E586
:204880008530E404119B0559D0FFD0D0D082D083D0F0D0E03275FF0253857F75FF024385B0
:2048A0001022AB07AA061195ED4C70050DBD00010CD3ED94FFEC9403500AEDF586EC443041
:2048C000F5858052D3ED94FCEC940F5017EDAE047802CEC313CE13D8F9AC06F586EC443446
:2048E000F5858032D3ED94F0EC943F5016ECC4F854F0C868FCEDC4540F48F586EC4438F5D7
:20490000858013EDAE047806CEC313CE13D8F9F586EE443CF585903230312FD233E4F55920
:2049200075FF0243854075FF02438580D23222AF03EAF0A3EFF0221195C232E4F559C23324
:204940002230320D1195E4F559D23375FF0243858022303313E559600F1559903230E0FEA8
:20496000A3E0FF4E6002316922AA06A907022009903136ECF0A3EDF0AA07AF03EF70010F99
:20498000EF75F00AA4FFAEF0EA5184EEF0A3EFF0EA1233CCEEF0A3EFF0903139E0FFEA1229
:2049A00033DCEFF0903136E0FEA3E0FFEA31B7EEF0A3EFF022E55A75F007A42462F582E42E
:2049C0003429F5832290313AEE510CEBF07FFFA3E0F9E9C3940C5023E91233CCE0FCA3E0AD
:2049E0004C7015AF0190313AE0FC5117A3E0903139F03170E904FF220980D7227E1A7FCF73
:204A00007BFF7D6490313E7402F080B9F0A3EFF0A3EDF0A322E0FFA3E0FDA3E0FB22E4FB08
:204A20007D01E490313EF0809C903053121F6B903053121F4B5164AE04AF05903058E0FDBB
:204A4000A3E0FB5122903053122FD2903053515EB4FF04E4121BFB903053515EFF22121FA6
:204A60004B021B93121B93FF516EE4021BFB51A8500E5183E4F0A3F01233CBE4F0A3F00EAA
:204A8000AF0622EF75F007A42460F582E43429F5832251A8500F518351B060091233CBECD8
:204AA000F0A3EDF00EAF0622E4FE1FEFC3940C22E0FCA3E0FD4C22A2AFE433FFC2AF9029D1
:204AC000B2E0FCA3E0FBAA04EF24FF92AFAE02AF0322903232EEF0A3EFF051B790323212E3
:204AE00046849FEC9E5009C3EF9DFFEE9CFE8019903232E0FCA3E0F4FDECF4FCED2401FDCC
:204B0000E43CFCED2FFFEC3EFE229002BDE0FEA3E0FF51D2D3EF94C8EE940022E4F552F560
:204B200053F554F55575FF0185FD4E75FF0185C94F75FF0185CA5075FF0185CB5122EF718C
:204B400045F0020000901221F090326A22901221E0FFF4600590326AEFF074FF7145E0FF0F
:204B600022901221E0FE640690326A6004EFF08008EEF090122174FFF090326AE0FF2212CE
:204B800037FE5004B1E44003302703D38001C322E4900449B1DC75F0E5E55B1227F1E054EB
:204BA000F06440700281EFE4FE75F0E5EE1227F1E0FDB4010990044AEEF0E4FF8024EDB4BC
:204BC000020B90044AE0B4FF04EEF0801075F0E5EE1227F1E054F0FDBD80027F010EEEB4F3
:204BE00003C7EF600690044A74FFF090044AE0F4700281EF717F500281EFE51530E1028181
:204C0000EF90044AE0900004B14330E408900006B14C549FF090044AE09000B8B143540F70
:204C2000FEBE05089000BCB14C30E11590044AE0900003B13CE020E5249000BBB155B4FFF1
:204C40001C90044AE0900005B136C083C082E04401FFA3E0D082D083CFF0A3EFF090044A0E
:204C6000E0FD75F0E5900005121F3FE0FEA3E0FFC006C007ED75F0E5A424B3F9740035F0D7
:204C8000FA7B01C002C00190044AE0FF9000D9B136E090042CF0EF75F0E5A42409F9740007
:204CA00035F0FAA3121F6B90044AE09000B2B13CE0900430F09000DAB155900431F0E4A369
:204CC000F0D001D002D007D0061234A8502190044AE0F55B75F0E51227F1E04440F09004CB
:204CE000497401F09022A2F0E51530E202D322E51530E23B7F041237E875F0E5E55B122701
:204D0000F1E0FF54F06440702175F0E5E55B1227F1EF540FF075F0E5E55B1227F1E04480FC
:204D2000F0E55BB15E12199480057F011227B4900449E024FF2275F0E5021F3FFF75F0E58E
:204D4000021F3FFF75F0E5121F3FE02275F0E5EF121F3FE02275F0E5EF121F3FE02275F07D
:204D6000E5A42401F9740035F0FA7B0122900447EFB1DCFEFD75F0E5ED1227F1E0FC700C50
:204D8000900448E0B4FF02EDF00F8006EC30E0027E010DEDB403DE900447E06401600DEFA8
:204DA000C394025007EE7004A374FFF0900448E0FFC39403501FEFB15E7DE5E4FF12195891
:204DC000900447E04410FFA3E0FE75F0E51227F1EFF0EE80897B007A00790022F0A374FF64
:204DE000F0E4FF22E5F754E024FF22AF14EFC36001D322EFC3940E5005900415EFF022E566
:204E000017540FFF22E517C394F0501F5317F0D12EFE740FC39F4005EE940E400543170D88
:204E20008003EF4217E517540FFF227F0022E517C4540FFEEF9025F4932E22E51754F0C4E6
:204E4000540F2FFFC3941040027F0FEF9025E493FF227E10EE60091EEE9025E493B507F481
:204E6000EEC3940E40027E0DEE9025D693FF22C2AFEF4215D2AF22EF24FE600C24FE600587
:204E800080007F01227F02227F0322E51520E508124225E5D120E0FBE4F51022900425E0D4
:204EA000A3E0FF22900442EFF0ED24FE60191460262402703BEB2402FFE43AFE7C007D5031
:204EC000121C2F7D60801EF11AC333CE33CED8F9FF7C007D28800EF11AC333CE33CED8F90A
:204EE000FF7C007D64121C41900443EEF0A3EFF0900442E0F125F583C083C082121EF69031
:204F00000444E02401FF900443E03400FEE4FCFD121D44D082D083021F02EB2401FFE43A17
:204F2000FEEF78032225E025E02418F582E4340422EFF125F583121EDA021EC0E4900418F5
:204F4000F158E4FFFEFDFC90041C121F02E4FFFEFDFC900420021F02FFFEFDFC021F02E49D
:204F6000FF1227EDE060037F00220FEFB403F27F0122E4021BFB121B93540F021BFB80F632
:204F80007F017E009017FCE4935EFE7401935F4E24FFB322900001740193B40007E493B471
:204FA0001802C322D322EF7011ED600775FF0143AE012275FF0153AEFE22EFB40110ED6019
:204FC0000775FF0143AE022275FF0153AEFD2275FF02E5E630E2037F0322E5E630E3037F51
:204FE0000022E5E630E1037F0422E5E67F0530E0027F0122EF600775FF0253E6BF2275FFAE
:205000000243E64022EF14600F146014240270188B8075FF018DFD228B9075FF018DC92227
:205020008BA075FF018DCA22AF038FB075FF01AF058FCB2290305B121F6BEF14601414601F
:205040001E24027027117AE5801180121F4BE5FD8025117AE5901180121F4BE5C98018118D
:205060007AE5A01180121F4BE5CA800B117AE5B01180121F4BE5CB021BFB90305E021F4B6B
:20508000121BFB75FF0190305B22E4F5FFAF9122E4F5FFAF9222902E57E0121BFB902E5C8A
:2050A000E0900001121C0D902E5DE0900002021C0DE4902D98F07B017A2D797F1196902DE4
:2050C00081E0FBB41122902D94121F0E00007800902D90121F0E00006000902D757418F0EB
:2050E000A3E4F0A3F0A380277412D39B5027902D94121F0E00020000902D90121F0E0002D1
:205100000000E4902D75F0A3F0A37418F0A3E4F0902D9804F0902D98E0FB6017E4FFFE7D12
:2051200002FC902D81E024EFF9F8121EAD902D79121F02AF032235F07B02FEAF01AD4DAB40
:2051400005E4FCFD903148EBF0022833903063122FEEC007903063121F4B9030663164D0E9
:2051600007024574E0FFA3E0902EF0CFF0A3EFF022902F5F121F6B902F62ECF0A3EDF09033
:205180002D98E07002413A5140704D5150514950475159A3122EFCE4FB7A18F9F8C3121E7F
:2051A000895035902F64121EF6C3E49BFF74189AFEE499FDE498FCE4902F608FF0121C96FB
:2051C000C3902F63E09FF0902F62E09400F0902F64121F0E000018005159A3122EFC902D36
:2051E00090122EFC902D7951B5404A51A54024E451505149403F902F62E0FEA3E0FBE49B29
:20520000FF74A09EFE74019400FDE49400FCA351495022902F64121EDA902D90122EFCC040
:2052200007902F5F121F4B902F623164D007124574E4338001E4902F68F0902F68E0FF22BA
:20524000E4FFFE7D02FC902D79121EF6C3021E89FF7E18FDFC902F6422902F62E0FEA3E0D5
:20526000FFE4FCFD22903268EFF0E4A3F0902D98E0602151407008519A7E777D00800A51B9
:20528000A55011519A7EFF7D017C00122833E433903269F0903269E0FF22903268E0903110
:2052A00048F07FFF22902D79121EDAE4FBFA7904F8D3021E89121EF6D3021E8990306A122E
:2052C0002FEEC00790306A121F4B90306D51D4D007024693E0FFA3E0902D54CFF0A3EFF08C
:2052E00022E4F5FF75D102E5D120E0FBE4F5D1F5FFEF7102EE540F42D6E4F5FFCFEDCF8F60
:20530000D422F5D7E4F5FF53D6F022E4F5FFEFF5D8E4F5FF53D60FEE540FC4F854F0C8E417
:20532000C4540F4842D622E4F5FF8FD422E4F5FFE5D1540133333354F8FFE4F5FFE5D354BC
:20534000074FFF227159AD94EF4D71A88FF0121D25E591C330E701D32275FF03AF93EF7540
:20536000F010A4FF22CDEFCDCCEECC7159AB94EF4B71A8CBEFCBFAE59130E71D715CA994CA
:20538000E9F582EF4582FFEB2DF582EA3CF583C3EF9582E5F0958340DEE59120E709CEECB7
:2053A000CECFEDCF123DA82224FBFFE5F034FF22E4F5FF75C2E17F1E71CB30E707E4F5FF74
:2053C00075C2A122E4F5FF75C28122FE716590120FE0229031E5910EF07F017C127D01E4F5
:2053E000FEED2EF582E43CF583E02FFF0EEEB412F0901213E06F60099031E59105E4121B0B
:20540000FB22903182E0FBA3E0FAA3E0F922EBF0A3EAF0A3E922903175121F0275FF0190C2
:205420003175A3E0FDA3A3E4FFFEE4FC7810121E9A8FE1903175A3A3E0FEA3E4FFE4FDFCC0
:205440007808121E9A8FE2903175A3A3A3E0FF8FE322C23E75FF03759B1F75FF0390120F31
:20546000E0FF20E71BE59A540FC394024012EF4480F0E4F5FF75C2A143FC0475FF03D23E81
:20548000E5FC30E609E59A540FC3940540CCE5FC30E611E4121BFB75FC80F5FC75FC40E536
:2054A000FC20E6FB303E03123C3522EF30E00E43F401E4F5FF43A404F5FF759624EF30E1AE
:2054C0000E43F401E4F5FF43A408F5FF759624EF30E20943F402E4F5FF75961EEF30E3094D
:2054E00043F404E4F5FF75961075FF01EF5403600475D7122275D72D22E4F5FF7584E6F598
:20550000FF439404F5FF75981422E4F5FF75933F75FF03759A4091F9E4F5FF759C93F5FF9B
:2055200075A1A3F5FF758531F5FF758628E5FA54304480F5FA75FF0175E74A75FF0275DF81
:205540004975FF0143D30475FF0153D367E4F5FF53E6BF75FF0175D825F5FF75B503F5FFA5
:2055600075B215F5FF75BA02F5FF75AFB3F5FF75CD0AF5FF75CB08F5FF75CA12F5FF75BF16
:205580000EF5FF75CC96F5FFF5BDF5FF75C281F5FF75AEE1F5FF75DA55F5FF75F580F5FF7E
:2055A00075E903F5FF75E933F5FF75972A75FF01759B42759CA4759D29759E48759F24751C
:2055C000A11275A312759AF820410CF5FF43968090120FE04440F022CCEFCCCFEDCF74017F
:2055E0007E00C8EFC8088005C333CE33CED8F9FFCDECCDEF5D601B30401875FF0175DCAD44
:2056000075FF0175DDCDE4F5FF759A74F5FF7594842275FF0175DC5375FF0175DD33E4F50C
:20562000FF759A14F5FF75940422D14953DB7F75FF0175D5027F1412371B123DADD149434D
:20564000DB8075FF01E4F5D52275FF01438E1075FF012275FF0175E46575FF0175D6472261
:20566000903149EFF0E4A3122F9E7801121E9A903149D1F2121F02901210E0FF6480607152
:20568000EFC3947F5039EBD1F4C083C082123ADFFFEEC0E0EFC0E0901210E075F004A4AEF3
:2056A000F0FBCAEECAEA3395E0F9F8D0E0FFD0E0FEC3EF9BFFEE9AFEED99FDEC98802A908A
:2056C0003149E0D1F4C083C082F102901210E0F40475F004A4FFAEF0EE3395E0FDFCEB2F56
:2056E000FFEA3EFEE93DFDE83CFCD082D083121F0222E0FB25E025E02401F582E43412F5A8
:205700008322E0F8A3E0F9A3E0FAA3E0FB2275FF01E5D530E602C32253FACFEFB408054338
:20572000FA308012EFB4040543FA208009EFB4020543FA108000D322E5F4541813131354DD
:205740001FFF22E5F75406FFBF06037F0822E5F75406FFBF04037F0422E5F75406FFBF02CD
:20576000037F02227F0122F18EAFD922E4FFE5F754C0600280F175FF01E5D530E30F123F70
:20578000C750F3F167EF60EE123FC750E92275FF01E4F5EA75EAFF2275FF01E5D520E60208
:2057A000C322E5FA540360FA75FF018FC3D322CEEFCE75FF01E5D520E602C32243FA04E4EC
:2057C000FDEDC39E50077F55F1980D80F4E5FA543070047F0F80027FF0F198D322E5F71386
:2057E00022EFB40109D2AD75FF0143AE4022C2AD75FF0153AEBF2275C80122E5C85402FF6B
:2058000075C80222E5C85401FF22EF600A75F28075F24043F14022E5F130E70653F17F438E
:20582000F180E5F130E308E5F230E7FB75F2C022E5F130E70653F17F43F18022EF600443B2
:20584000F1802275FF01E4F58E53F17F22EFB4080711794403F58422EFB404071179440258
:20586000F58422EFB4020711794401F58422EFB4010675FF015384FC2275FF01E58454FC35
:2058800022E5F130E40F75FF0175FF015385F075FF018F862275FF01EF540FFDE58554F01D
:2058A0004DF58575FF01EEC4F854F0C8EFC4540F48F58622EF6003D2EA22C2EA2275F24056
:2058C00022E5F2C330E601D322E4F556F557E5F230E72675F280E5F1AFF330E4077556002C
:2058E0008F578010EF75F010A4F55785F056E5F2540F4257AE56AF57227EFF7FFF22EF60A8
:205900000775FF014384042275FF015384FB2275FF0153853FEF428522EFB4010443F11065
:205920002253F1EF22EFB4010443F1042253F1FB22EF600443F1012253F1FE22EFB40203D7
:2059400043F108EFB4010353F1F7EFB4030543F101803FEDB4040875FF014385208014EDFF
:20596000B4010731965384F78009EDB402053196438408EBB4100875FF015385EF800AEBA7
:20598000B4200675FF0143851075FF019031E4E0F58E43F1802275FF015385DF75FF0122CA
:2059A000E4F5FFED540F4FF5DB22E4F5FFEF25E0F5DCE4F5FFEDF5DDE4F5FFECF5DDE4F5DB
:2059C000FF43DB102290322A121F6BE4F5FFE5DB20E4FBE4F5FFF5DCFDE4F5FF90322A12DD
:2059E0001F4B75F002EDA4F58285F083121CEDAEF0F5DDE4F5FFEEF5DD0DEDB404DBE4F54D
:205A0000FF43DB1022E4F5FFE5DBC330E401D32290322D1247CCE4FF90322D121F4B8F825F
:205A20001247E40FEFB410F02275FF01E58F54F64408F58F2275FF01E58F5408FF22EFB427
:205A4000010775FF0143AE202275FF0153AEDF22EFB4010775FF014391202275FF01539190
:205A6000DF22902FFA1247CCE58F20E0FB1247D3E58F54F04402F58F75FF017F10902FFA6D
:205A8000121F4B1F8F82124718F59451D88F82758300E4121C0DEF70E451DEEA540FFD5102
:205AA000D8EAC4F854F0C8E9C4540F4854F04DF59251DEE9F59875FF0151D8E9F59675FFC1
:205AC0000175991075FF0175971075FF0143912051E7E58F20E0FB22903000021F4B75FF44
:205AE00001902FFD021F4B75FF01E58F54F64401F58F22EFF0A3EDF0A3021F6B8F828E83AF
:205B00007F0102200DF9E43AFAE4021BFB7B017A12791C9030CC121F6B7A0279B6227B01BB
:205B20007D011219D57B01227F021237E89002B4E09002BCF09002B404F0C3940222E92471
:205B40000DF9E43AFA2275FF01534EEF854EFD22900001021BACC8ECC8C9EDC9CAEECACB6C
:205B6000EFCB22F0A3F0A3F0A3F0A322F9E43AFAEE021BFBE4F5FFE5D25480440AF5D2222A
:205B8000121F6B021B93EFF090121CE022902DC6E0FF14F0EF22E5D254804414F5D2227D5A
:205BA000011219D57B01228B828A8302200D33333354F8F5F42275FF03902DC6E022FFFF13
:205BC000FFFFFFFFFFFFFFFFFFFFFFFFFFFFFFFFFFFFFFFFFFFFFFFFFFFFFFFFFFFFFFFFE5
:205BE000FFFFFFFFFFFFFFFFFFFFFFFFFFFFFFFFFFFFFFFFFFFFFFFFFFFFFFFFFFFFFFFFC5
:205C0000FFFFFFFFFFFFFFFFFFFFFFFFFFFFFFFFFFFFFFFFFFFFFFFFFFFFFFFFFFFFFFFFA4
:205C2000FFFFFFFFFFFFFFFFFFFFFFFFFFFFFFFFFFFFFFFFFFFFFFFFFFFFFFFFFFFFFFFF84
:207FA000FFFFFFFFFFFFFFFFFFFFFFFFFFFFFFFFFFFFFFFFFFFFFFFF7FC65054573D00015B
:207FC000008600008C03FFFFFFFFFFFFFFFFFFFFFFFFFFFFFFFFFFFFFFFFFFFFFFFFFFFFA6
:207FE000FFFFFFFFFFFFFFFFFFFFFFFFFFFFFFFFFFFFFFFFFFFFFFFFFFFFFFFFFFFFFFFFA1
:20800000E4FF9031EB121F6BAE051DEE600C9031EB12C76EEF121BFB80EE22711A4AC36079
:2080200001D340026107E924B77111FF7B017A32797412BBD130130B711A2402711130E534
:208040000221A4711A24B67111F1E37039711A24B7711130E730711AF15DF1F85407640342
:208060007024711A24B97111D394405019711AF15DF1EA12B596EF44041290AD711A24BB71
:2080800071114410219F711A24B7711130E721540F6401701B121B9330E70F711A24BB7116
:2080A0001130E4067E007F0180117E007F00800B711A24B771115410FF7E00EF4E6019718E
:2080C0001A2403711154FB121BFB711AF15D121CC254F8440312A364711A2402711120E2BC
:2080E0000221A4711A24DF7111D39403400221A4711A24037111FF30E431711A2403F9E431
:208100003AFAEF54EF121BFB711A240612B12AFFAEF0711AF15DF1F0EF54076402C37001F4
:20812000D312B5F3903274E04F41F6711A24DF7111D39402500C711A24BA7111FF12B94349
:20814000801C9022A9E09023986008E004FF12B86E8006E004FF12B996902398EFF0711AFB
:2081600024DF12953E121BFB902398E0F4600712B4C4500241F9711A24DF7111C394045098
:2081800023711AF15D12B58EC37001D312B5F3EF44011290AD711A24DFF9E43AFA74041221
:2081A0001BFB41F93013026102711A24DF7111C3940540026102711A2403711120E002611F
:2081C00002711A24B67111FFC007711A24BA7111FD711A1297F2C003C002C001711A24B13C
:2081E0007111902F9371192402711154034401902F94711912B128FF902F95E5F0F0A3EF6B
:20820000F0D001D002D003D00712B288EF70026102D19E240571114420D19D2414F16ED1BD
:208220009E12CFFE121BFBD19E12CFD7110290262C121F4B7405121BFB90262C12366512BF
:20824000D007711A12CF0B711A12CEE1741A75F03E121D25711AF15D121CC2AEF054F8F15B
:20826000EFEFF1EDD19E24047111FF711AF16CD19E24067111FF7440C39F5009711A12908C
:20828000A6742F80187411D39F500CEF24EFFF711A1290A6EF8006711A1290A6E4121BFB82
:2082A000711A24B17111FF711A1297F2C003C002C001D19E241CF14CD001D002D003F176A8
:2082C000711A1295497B01C003C002C001D19E240BF9E43AFA7B01F150D001D002D0037F00
:2082E00011F176711A24DFF9E43AFA7405121BFB12B596EF44061290AD9030E8121F4B02BB
:208300004F76E4FF12B0DC22902F4B121F4BE92407F9E43AFA021B93EFF09030E8121F4B97
:20832000E922903199121F6B121F74E924097111541FF530D194710EFFE52B6401601C741F
:2083400012D39F5016E530B402067419D39F500BE530B40108741DD39F4002C322D194E9BE
:20836000240A711130E216D194E924087111F1E3600BD194E924047111FF12CC79E5306423
:20838000026002812D903199710B30E702812BD194E924087111F1E37028202002812BC218
:2083A00020D194E924047111FD7F0312C830D194E924047111FFD246D194E9241312AC05C5
:2083C0008069D194E9240C7111FF540FFE605CD194125B3E1E7C00E92E12CF2CFD90121C0F
:2083E000E06D7047D194710E6419703FD194E9240CF9E43AFAEF54F024102ED1911297EB4F
:20840000FAE4D191F1507B017A26792F7F18F176C215D194E924047111FFD194E924087160
:2084200011FD12CFBA12A577129550C322E4FFD194125B3EEF7C002912CF2CFE90121CE059
:20844000B50602C3220FEFB404E5D194E924047111FFD194E924067111540FFD12CC3A5026
:2084600002C322D194E924087111F1E37002A1B190121DE0FF54306002A1B1EF20E002A119
:20848000B1E53064016008903199710B30E71F201F02A1B1E53064016002A1B1D194E9240A
:2084A00011F9E43AFEAF0112C29E4002A1B112B3678F2DBF0202C322D194710EFF7440C3F6
:2084C0009F5002C322E530B40119D19412D03B7B01C002C0017A0279B6F150D001D0027F54
:2084E00004F17690262C12CF79D194710ED19D240BF9E43AFAC003C002C001D194F150D087
:2085000001D002D003F176D194E924047111FF12CBD9D194E924067111540FFE12CCF2A6D0
:2085200006EF12CBD176070876D0D194E9240C711154F090319CF06078E0FF7440C39F402F
:2085400070E024F0F0D19E24177111540FFF7404D39F405D90121CE0FED19E2418F9E43A54
:20856000FAEF7C0029F9EC125B6E90319CE02F04D19D2417F16ED194E924047111F164D117
:2085800094E924087111D19D2403F16E90262C121F4B7401121BFB90262CF1597440D1917F
:2085A000710ED19D2406F16E90262C128F8F12C82AD194E924087111F1E36006EFF46002B4
:2085C000C18D903199710BFF30E702C18DE5306002C18DEF4401D19112D03BC003C002C054
:2085E00001903199128FE3F9E43AFA121F94D194710E24EEFF903199121F4BE92406F16E89
:20860000D194E92405711130E67CD194E924047111FFC246D194E9240C12AC05D194F150E9
:208620007B017A26792F7F11F176902634E054BFF0D194E924047111902640F0D194E92462
:20864000067111540F902641F0D194E9240CF14C7B017A2679427F0512D021902633F090C6
:2086600026367419F0D194E924047111FD902637F0A37422F0A37407F0C21512CFBA12A5EF
:20868000771295508009E530C37001D322C322D322121BFB903199121F4B021F74FF902683
:2086A0002C121F4BE9229030E8121F6BE924017111D39401403912BB7F9030ECEFF07E1AE3
:2086C0007F66711A24B7711130E719711A24BB711120E010711A24BC711112D018B50404FD
:2086E0007D07803F711A24B1711112D0438034E49030ECF07E1A7F66711A24B7711130E780
:2087000019711A24BB711120E010711A24BC711112D018B504047D078009711A24B17111B1
:2087200012D0437C00903238EEF0A3EFF09030E77401F0AE04AF0512B7ECAC06AD079032EF
:2087400038E0FEA3E0FF0248A2E92403F9E43AFA903081021F6B902EA6121F4BE92404F9BD
:20876000E43AFA22FF90262C121F4BE92402F9E43AFAEF021BFB90307E121F6BAE071FEE9F
:208780006013903081122F80FE90307E12C76EEE121BFB80E7229030D5121F6B9030D81267
:2087A0001F4B7D05E4FF110212909E24017111FF9030D8122FD29030D8121F4BE924011212
:2087C0005B0512909E24057111FF9030D8128FE3F16E12909E24047111FF9030D8F159EF1A
:2087E000021BFBFF90121CE06F22EF54F84402FFEE8FF0021D25F15C121CC2FFAEF0220204
:2088000029279030C9121F6B12B3E49030CC122FD29030C9121F4BE94A600B9030C9F16F0F
:2088200012BB78122F5722902F4B121F6B121F74902F52121F6B902F4B123665E4121BFB7E
:20884000C2169022AAF0902F52121F4B1287507B017A2279987F04128776203B121227CD50
:2088600012C2DDF1AB60081283084480121BFB12830830E76690121CE06034301F31F17786
:208880002405128311540FFF6405604FEF6401701E121B9330E718F177240A128311F19AF7
:2088A000F177F17F12CF987A0279B6F1AF602C201A02C19B201C24F177240512831120E75A
:2088C0001AF177F193E92401128311B4030DF177F19312CF98F1AB7002C19BF177240612A7
:2088E0008311540FFF902296E07E00B402027E80EF4E90244712831924B7128311FF7B0144
:208900007A2F794E12BBD112831A12875D121CC25407FF12831A24B8128311540FFE902F09
:208920004EE0540FFDBD04047D4080027D00EE4DFEEF7F00B402027F80EE4F90229DF0F15D
:20894000772405128311FF540F24FE7002A1C6147002C16D24FE7002C19424046002C19BF1
:20896000902F5212830BFE740AD39E40028028EF20E702A162902447E04440F0F177240A8F
:20898000128311C4540F902F4FF0600BE0D394045005740B9E400A902F4B123665E4021BE2
:2089A000FBF17724081283111287E36002615FF1772409128311902F5230E35AF1F01283B5
:2089C00011F19AF177F17F121B93FFC4540F29F9EE3AFAE92401F9E43AFAC003C002C00194
:2089E000902F4BF1E3F9E43AFA121F94F177240A128311C4540FFFFD7C00F177240BF9E474
:208A00003A12CF29C4540FFE902F5212830BC39FC39E24F3802EF1F0128311F19AF177F149
:208A20007FC003C002C001902F4BF1E3F9E43AFA121F94F177240A12831112D04B12830BB4
:208A400024F4C39FFFF1EAE9240612876EF177240A128311540FFF902F4FE06F600241ED1D
:208A6000902297E0600281D4F1772405128311902F4B30E60712830B440D800512830B445E
:208A800009121BFBF177240BF9E43AFA7E00F18512D03312D00FF1A412876E12830830E7B3
:208AA0000281D4F177240512831120E70281D4F177240A128311C4540FF176F17F121B93D0
:208AC000D39401400281D4E924011283116403600281D4F177240A128311C4540FF176F10A
:208AE0007F1287497B0112CF3CD21781D4F177240A128311540F640F600281D4F1772405E4
:208B000012831130E6081283084404121BFB12C073501AF177240A12831112D04B121F4BF0
:208B200012BFF050081283084401121BFBF1772409128311FF30E10712830844208009EF47
:208B400030E2081283084440121BFBF177240B128311FF902F4BF1A4F9E43AFAEF8168F1FD
:208B600077240A128311FF540FFDEFC4540FFCEDC39C4002816DF17712C064121B931287C6
:208B8000E36002816DF177240912831130E05E12C0735008128308F1D77405F0EC14902FCF
:208BA00052B50508121F4BE92404800612C060E92401128311FF902F4BF1A412876EED60B6
:208BC000028141F177240912831130E374F177240A128311F19AF177F17F121B93540F70DD
:208BE00060E9240112831154186056804CED902F52700B121F4BE92404F9E43A800612C0FE
:208C00006012D03312D00FF1A412876EEC146D7030F177240912831130E326F177240A1229
:208C20008311F19AF177F17F121B93540F7012E92401128311546060081283084404121BB6
:208C4000FB902297E060089022AAE0700281D4F1772405128311902F4B30E60712830B4443
:208C600014800512830B4410121BFB8067F177240A128311540FFD12C0735058F17724093A
:208C800012831130E025ED2402540FFDF177240A128311C4540FFFEDC39F5038F17712C013
:208CA00064121B931287E3702B8021EDC394024023F177240BF9E43AFAED24FEFFE434FF62
:208CC000FE12CFECFF90121CE0B50708128308F1D77401F0F17724041283111287E3602963
:208CE00012831A12954912C2DD902F52121F4BF1AF6002C19B12831A24B6128311F176247F
:208D0000041283116F6002C19B12C0734002C19BF177240A128311FF540FFE12831A24BA70
:208D2000128311FDF17724081283116D6002C19BF177240912831130E017EFC4540F24FE91
:208D4000540F6E6002C19B128308F1D77403F0C19BEE64016002C19B128308F1D77401F081
:208D6000C19BF17724081283111287E36006EFF46002C19B1283084401121BFBF177240440
:208D8000128311FF902F4BF1A412876EF177F193C003C002C001902F4BF1E3F9E43AFA1255
:208DA0001F94902F5212830B24F6FFF1EAE9240612876EF177240512831120E602C19B1294
:208DC00083084404C18FF1772408128311FF54E0FD90121CE0D39D5002C19BEF541F75F083
:208DE00008A47C002DFFEC35F0FEE0D39FEE1236954002C19BF177240812831154E0FF9058
:208E0000121CE0C39F14F176F193EF131313541F2912CF2CFEEF540712BE3E8002C333D86C
:208E2000FC5E60771283084401121BFBF1772408128311541FFF7E00F1772409F181C00303
:208E4000C002C001902F4BF1E3F9E43AFA121F94F1772408128311541FFF902F5212830B7E
:208E600024F6C39F902F4B12CF8CEF802212C094600990229DE054BF6F7020F177240812B8
:208E80008311FF90121CE0B507111283084403121BFB8007F1EA1283229216F17724051264
:208EA0008311FF540F64016002E148EF902F5230E714F1F0128311F19AF177F17F121B93F7
:208EC000902F51F08010121F4BE92409128311902F51F0A3F18FE92401128311902F50F0F4
:208EE000128308FF301A6154E26480705B902F51E06401704B902F50E06408604B301C0BD9
:208F0000F177F19312CF98F1AB602DF177F193E92404128311F176F193E924031283114F30
:208F2000F176F193E924051283114FF176F193E924061283114F7008902F50E06403600816
:208F400012830854EA121BFB12830830E002D216229031EE121F6B7E007F0412513F9031A6
:208F6000EEF16F12984C7404F012514C7F01227E007F00021F4BFF902F52121F4BE92224D0
:208F80000BF9E43AFAE92FF9EE3AFA229025FB121F4BE92409F9E43AFA22C4540FFF7E0047
:208FA00022903092121F4BE92408227A2279987F04F1B5EF22903085121F6BAE071FEE60A0
:208FC00013903088122F80FE903085122F806E60EA7F01227F00224403121BFB9022AA2289
:208FE000902ED3121F4BE9240322902F4B021F4B121F4BE9240A22022F5212513FE433FFCC
:20900000229030D4E09030C8F0022F5712831A4AC36001D34002019D12831A2401F9E43AFF
:20902000FA74FF121BD9121B93D394014002805C12831A24011283116401705912831A120E
:20904000875D1287F854076403704112831A24B6128311FD90121CE06D703112831A24B7C6
:2090600012831120E72612831A24B9128311D394405019201B1612831A12875D1287EA1250
:20908000831A24B71283114410121BFB9030E8121F4B024F76E49030EBF012801B2290303D
:2090A000D5121F4BE92224B1F9E43AFA22FF9030E8121F4B90314E121F6BEF540FFE91CAD3
:2090C00024B812831154F0FDEF54F0FFC4540F4D121BFBEE14605B14700261CA24FE7002FD
:2090E00021FE24FE700281342403600281C191CAB149C003C002C0011227CD128750D001E2
